:100000000C94AB000C94BD000C94BD000C94BD008E
:100010000C94BD000C94BD000C94BD000C94BD006C
:100020000C94BD000C94BD000C94BD000C94BD005C
:100030000C943B040C94BD000C94BD000C94BD00CA
:100040000C94BD000C94BD000C94BD000C94BD003C
:100050000C94BD006E616E00696E660000407A10FF
:10006000F35A00A0724E18090010A5D4E80000E869
:100070007648170000E40B54020000CA9A3B0000C7
:1000800000E1F505000080969800000040420F0056
:100090000000A08601000000102700000000E80317
:1000A000000000006400000000000A0000000000E2
:1000B0000100000000002C76D888DC674F0823DFA1
:1000C000C1DFAE59E1B1B796E5E3E453C63AE65174
:1000D000997696E8E6C28426EB898C9B62ED407C9B
:1000E0006FFCEFBC9C9F40F2BAA56FA5F490055A37
:1000F0002AF75C936B6CF9676DC11BFCE0E40D475C
:10010000FEF520E6B500D0ED902E0300943577057E
:100110000080841E080000204E0A000000C80C3336
:100120003333330F986E12831141EF8D2114893BC5
:10013000E65516CFFEE6DB18D1844B381BF77C1D45
:10014000901DA4BBE424203284725E228100C9F198
:1001500024ECA1E53D2711241FBECFE5D8E0DEBF8A
:10016000CDBF10E0A0E6B0E001C01D92A23EB107F5
:10017000E1F70E942F080C94C2110C940000EF923A
:10018000FF921F93DF93CF9300D000D00F92CDB793
:10019000DEB79AB3A82FB0E061E070E002C0660F4E
:1001A000771F8A95E2F7262FE62FE0959E239ABBCC
:1001B00085E38A95F1F789B390E00A2E02C0959500
:1001C00087950A94E2F780FFA2C08AB3282B2ABB46
:1001D00089B38E2389BB20E030E040E951E0CA01B9
:1001E0000197F1F72F5F3F4F283C3105C1F78AB3E4
:1001F000E823EABB80E58A95F1F729EB35E007C0F3
:10020000832F8A95F1F721502F3F09F490C089B3CD
:1002100090E086239723892B99F780E58A95F1F75B
:1002200026E435E007C0832F8A95F1F721502F3F50
:1002300009F47BC089B390E086239723892B99F337
:1002400080E58A95F1F726E435E007C0832F8A958B
:10025000F1F721502F3F09F46CC089B390E0862359
:100260009723892B99F79E012F5F3F4F85E0F90176
:1002700011928A95E9F7F90135E010EA96E0E92E46
:10028000F12CEC0EFD1E50E047E027E307C0832F62
:100290008A95F1F721502F3F09F445C089B390E0CA
:1002A00086239723892B99F3812F8A95F1F7550F90
:1002B00089B390E086239723892B79F02DE206C03D
:1002C000832F8A95F1F721502F3FA9F189B390E050
:1002D00086239723892BA1F751604150B0F65193A3
:1002E000EE15FF0581F679814A816B815C81872F4C
:1002F00090E0840F911D860F911D850F911D9070C8
:100300002D8130E082179307C1F087E001C081E0C2
:100310000F900F900F900F900F90CF91DF911F9142
:10032000FF90EF90089585E0F3CF83E0F1CF82E076
:10033000EFCF84E0EDCF86E0EBCFFD01EE0FFF1FA6
:10034000DF01A652BF4F4C9311967C93E953FF4FA8
:100350005083618380E0DCCF282F8091C500E22F9D
:10036000F0E090E0EE0FFF1F0E2E02C095958795EE
:100370000A94E2F78370F1F45AE06AE070E087B122
:100380002C5F2F71807E822B87B920E030E040E027
:10039000369A3699FECF84B195B1280F391F4F5F39
:1003A0004517B0F3C9010E94FF0FEE52FF4F608363
:1003B00071830895813031F0823041F052E362E37D
:1003C00070E0DDCF51E061E070E0D9CF55E065E04D
:1003D00070E0D5CF90B386B38295807F9F70892BD4
:1003E00080937B00089589B38F7080937C0008957B
:1003F0001F93182F843078F180918600853009F49E
:1004000041C08630C8F58823D9F580917D0084FDF0
:100410005EC010E098E0809186008F5F8093860038
:1004200080918600843110F010928600992389F023
:100430009830B0F5E12FF0E0EE0FFF1FDF01A6527C
:10044000BF4F8FEF8C9311968C93E953FF4F8083AE
:1004500081831F91089520917D0030E090E0049603
:1004600002C0359527958A95E2F720FFF2CF812FBC
:100470000E94BF00982FDACF8A3011F18F3049F0F7
:1004800090E0C9CF80917D0085FD2DC011E098E0FE
:10049000C2CF80917D0087FD2CC013E098E0BBCFD8
:1004A000E12FF0E0EE0FFF1FDF01A652BF4F1C92BD
:1004B00011961C92E953FF4F108211821F910895EB
:1004C00080917D0086FD09C012E098E0A4CF80E015
:1004D0000E94BF00982F10E09ECF82E00E94BF00D4
:1004E000982F12E098CF81E00E94BF00982F11E072
:1004F00092CF83E00E94BF00982F13E08CCF43B3CC
:1005000020B380B330E0207830703595279535954D
:1005100027953595279590E08074907095958795EF
:10052000282B4F70242B20937F00089583B382954E
:100530008F7080938000089580937D0090917D005E
:1005400080918200981799F180917D0082958F703B
:1005500080FD05C080917D0080FF2EC0D09A8091E3
:100560007D0082958695877080FD05C080917D0015
:1005700081FF2BC0D19A80917D00829586958695CA
:10058000837080FD05C080917D0082FF28C0D29AD3
:1005900080917D0090E0880F892F881F990B91959D
:1005A000882329F480917D0083FF1BC0D39A80911A
:1005B0007D00809382000895D09880917D0082957F
:1005C0008695877080FDD7CFD1CFD19880917D005F
:1005D000829586958695837080FDDACFD4CFD298A8
:1005E000D7CFD39880917D00809382000895582FB3
:1005F0008093CF006093D0004093D100809183001E
:10060000252F30E08527807E01F1F901E170F0703F
:1006100050FD2DC08091830080FF10C0EF2B71F43E
:100620008EB5887F83608EBD88E893E197BD86BDD7
:100630008AEF90E09BBD8ABD99BD88BD5093830031
:1006400060938400409385000895F901E170F07093
:1006500050FFE0CFE1E0F0E0809184006817C9F03E
:10066000942F80E0860F911D97BD86BDD3CF8EB5A8
:10067000952F929596959770887F982B9EBD942F75
:1006800080E0860F911D97BD86BD8091840068171C
:1006900039F780918500481719F7BCCF25B3382F5B
:1006A0003F70207F322B35BB90E032B3880F991F0B
:1006B000282F2074880F991F880F991F8078282B66
:1006C0003F73232B22BB089595B38295807F9F7043
:1006D000982B95BB0895282F80917D0080FF04C042
:1006E00080917D0084FF28C090E080917D0081FF93
:1006F00004C080917D0085FF1BC080917D0082FF3A
:1007000004C080917D0086FF0FC080917D0083FF33
:1007100006C080917D0087FD02C023FD98608BB3E9
:10072000807F982B9BBB089522FFEFCF9460EDCF85
:1007300021FFE3CF9260E1CF922F9170D6CF382F77
:1007400080918100831741F030FD09C088E10FB628
:10075000F89481BD11BC0FBE3093810008952FE045
:1007600088E190E00FB6F894A89581BD0FBE21BD39
:100770003093810008958093C5006093C60066237E
:1007800041F086B1629566956770887F862B86B941
:10079000089586B1876086B908950F93382F8091A8
:1007A000CF0080FD13C0332321F58091CF0081FF5E
:1007B00035C0862F90E086589F4F840F911D9BBDBA
:1007C0008ABD31503230D0F00F910895332319F59E
:1007D000942F80E0860F911D9BBD8ABD3150323031
:1007E00098F7902F80E0820F911D99BD88BD0F91E1
:1007F00008953230D1F23150323030F78091CF004D
:1008000082FF13C0822F90E086589F4F800F911D6A
:1008100099BD88BDD9CF323009F7DACF862F90E065
:1008200086509F4F9BBD8ABDCCCF822F90E08650D3
:100830009F4F99BD88BDC8CF0895382F613071F0A2
:1008400020917E0081E090E002C0880F991F3A95C8
:10085000E2F78095822380937E00089520917E00A8
:1008600081E090E002C0880F991F3A95E2F7282BAB
:1008700020937E0008951F920F920FB60F921124BD
:100880000F931F932F933F934F935F936F937F9398
:100890008F939F93AF93BF93EF93FF938FB1809309
:1008A000660090916800913009F444C09091660010
:1008B0009038A1F1809166008A3A09F44EC0809187
:1008C0006100823009F455C080916100813009F4E3
:1008D00074C010916100113009F47DC01092610064
:1008E000109264001092650080916600809367000A
:1008F000809167008FB9FF91EF91BF91AF919F9168
:100900008F917F916F915F914F913F912F911F91A7
:100910000F910F900FBE0F901F901895809161005E
:10092000882341F682E080936100909367001092E3
:100930006400DECF80916100823011F490936A00F0
:10094000109268001092610010926400109263008F
:100950001092650010926700CBCF809161008823D0
:1009600009F0ADCF81E08093610085E58093670059
:10097000BFCF80916400882329F48091630088238D
:1009800009F49EC0809164008E3109F4A5C0E09105
:100990006400F0E080916600EA55FF4F8083E091AB
:1009A0006400F0E0E857FF4F8081809367008091FA
:1009B00064008F5F809364009BCF809165008823E3
:1009C00009F087CF80916600809365008091660072
:1009D000809367008DCF80916500882309F47ECFD6
:1009E0008091650087FD87C000916500013009F4A2
:1009F0000EC180916500823009F4CBC08091650002
:100A0000833009F4F8C080916500843009F42BC16B
:100A100080916500853009F47FC180916500863042
:100A200009F4E6C180916500873009F4A3C0809184
:100A30006500883009F4F5C080916500893009F4BB
:100A4000B7C0809165008A3009F4BEC0809165000E
:100A50008B3009F4F1C0809165008C3009F42AC113
:100A6000809165008D3009F4A3C1809165008E30BE
:100A700009F4E3C1809165008F3009F4FFC18091D2
:100A80006500803109F454C280916500813109F418
:100A900079C280916500823109F4C1C280916500FC
:100AA000833109F025CF83B382958F7080938000C6
:100AB000809180008093670081E08093680018CF68
:100AC000809166008093620081E080936300809152
:100AD0008700809367000CCFE0916400F0E0809184
:100AE0006600EA55FF4F808380E88093670081E0CD
:100AF00080936800FDCE80916500803809F44AC17A
:100B000080916500813809F480C180916500823848
:100B100009F4B5C080916500833809F40FC1809154
:100B20006500843809F476C180916500853809F440
:100B30001DC280916500863809F45EC2809165000F
:100B4000873809F4CEC180916500883809F405C260
:100B500080916500893809F42AC2809165008A383D
:100B600009F0C6CE80917E008093670081E080937B
:100B70006800BECE9FB185B39295907F8F70982B01
:100B800095BB809166008093670081E08093680048
:100B90004ECF80B396B39295907F8F70982B9093A1
:100BA0007B0080917B0080936700109368003ACFB0
:100BB00089B38F7080937C0080917C008093670064
:100BC00081E08093680094CE80916900882309F4C5
:100BD00089C090916900913009F08ACE8091C80057
:100BE00080936700109269009093740010927500D2
:100BF000909368007DCE80916900882309F07AC0C7
:100C00008091D20080936700109369000BCF8FB161
:100C10000E944E03809166008093670000936800F5
:100C200001CF8FB10E946B038091660080936700B3
:100C300081E0809368005CCE80916900882309F48C
:100C4000CFC090916900913009F052CE8091CA00D6
:100C500080936700109269009093740090937500E0
:100C60009093680045CE80916900882309F080C088
:100C70008091D4008093670010936900D3CE809157
:100C80006900882309F454C010916900113009F0FB
:100C90002BCE8FB18093700060916F0040917000F7
:100CA00080E020E000E00E94CD03109368001092E5
:100CB00069001ACE80916900882309F4B6C090912A
:100CC0006900913009F014CE8091CC0080936700C8
:100CD000109269009093740082E080937500909365
:100CE000680006CE8091C7008093670081E0809302
:100CF0006900FECD90916900913009F093CE80910A
:100D0000D300809367001092690090936B0010925B
:100D10006C009093680086CE80916900882309F06A
:100D200099C08091D60080936700109369007ACEB5
:100D30008FB180936F0010936900D6CD80916900C8
:100D40008823B1F310916900113009F0CDCD8FB136
:100D50008093700020916F000091700081E060E04E
:100D600040E00E94CD031093680010926900BCCD52
:100D700090916900913009F055CE8091D500809313
:100D800067001092690090936B0090936C009093B1
:100D9000680048CE6FB180E040E020E000E00E94B3
:100DA000CD03809166008093670010936800A0CD0A
:100DB00080916900882309F48CC09091690091307A
:100DC00009F096CD8091CE00809367001092690063
:100DD0009093740083E0809375009093680088CDB1
:100DE0008091C9008093670081E08093690080CD85
:100DF00080916900882309F059C08091D8008093C0
:100E0000670081E0809369000DCE2FB181E060E042
:100E100040E0C4CF80916900882309F06EC08FB193
:100E200080937100109369005FCD8091CB00809317
:100E3000670081E0809369005BCD80916900882321
:100E400009F483C090916900913009F051CD8091EF
:100E5000DB00C6CE80916900813009F0E3CD80913E
:100E6000D700809367001092690091E090936B0027
:100E700082E080936C0090936800D4CD80916900EB
:100E8000882309F48CC080916900813009F030CD4D
:100E90008091DD00809367001092690081E080936B
:100EA0007400809375008093680022CD9091690052
:100EB000913009F0B7CD8091D900809367001092EE
:100EC000690090936B0083E080936C0090936800BE
:100ED000A9CD8091CD008093670081E08093690067
:100EE00007CD80916900882309F073C08FB180938A
:100EF0006D0081E080936900F7CC809169008130BA
:100F000009F49FC080916900823009F0EDCC8FB167
:100F10008093730080917100609172004091730022
:100F20000E94F7021092690081E080936800DCCC97
:100F300080916900882309F46AC09091690091301A
:100F400009F0D6CC8091DF00C1CE8091DA00809389
:100F5000670081E080936900CBCC8FB180916600FF
:100F60008093670081E080936800C2CCD89A8FB1EB
:100F70000E949C02D898809166008093670010932D
:100F80006800B6CC80916900882309F452C0909122
:100F90006900913009F0ACCC8091E10015CF8091CF
:100FA000DC008093670081E080936900A1CC809190
:100FB0006900882309F44CC090916900913009F0D0
:100FC00097CC8DE080936700109269009093680041
:100FD0008FCC10916900113009F086CC8FB18093CD
:100FE0006E0080916D0060916E000E94BB031093B3
:100FF00068001092690078CC8FB10E949F038091A5
:1010000066008093670081E08093680071CC8091D6
:10101000DE008093670081E08093690069CC0E94C4
:101020007F0280917F008093670081E08093680059
:101030005FCC8091E0008093670081E0809369003D
:1010400057CC8FB18093720082E0809369004CCCC2
:1010500082E08093670081E08093690049CC2F9201
:101060003F924F925F926F927F928F929F92AF9238
:10107000BF92CF92DF92EF92FF920F931F93CF9385
:10108000DF93F8941ABA80E487BB8FEF84BB80EFBC
:1010900081BB1BBA15BA12BA80EC8DB98EB58861C6
:1010A0008EBD8FB582608FBD8FB5806A8FBD8EB5C6
:1010B00083608EBD88E893E197BD86BD8AEF90E09E
:1010C0009BBD8ABD99BD88BD3A9A379A86B1876023
:1010D00086B9369A789401E092E0592E8DE0482E38
:1010E00018E8212E13E1312E80916A00813009F435
:1010F00047C080916B00813009F4BDC280917400BB
:10110000813091F7F89410917500143008F441C3C0
:1011100080918600853009F4B0C3863008F096C30C
:10112000882309F097C380917D0084FDD5C310E02A
:1011300098E0809186008F5F809386008091860082
:10114000843110F010928600992391F0983008F0C5
:1011500058C3E12FF0E0EE0FFF1FDF01A652BF4F93
:101160008FEF8C9311968C93E953FF4F808381838B
:1011700010927400789480916A00813009F0B9CFA0
:10118000F8944FEF5FEF20E030E0F901EA55FF4FB0
:1011900080814827842F82958427082E86958695FE
:1011A0008025082E869580258770042E452F8695EC
:1011B00007948795502D48270694879550254827F2
:1011C0002F5F3F4F2D31310501F78091C3002091F2
:1011D000C400F22EEE2490E08E299F2984179507F3
:1011E00009F041C380917A00882309F436C290B394
:1011F00086B38295807F9F70892B80937B0089B313
:101200008F7080937C00C0E0D0E08091C50090E0BA
:10121000FE01EE0FFF1F0E2E02C0959587950A94D2
:10122000E2F7837009F00FC25AE06AE070E097B10C
:101230009E012C5F822F8F71907E892B87B920E0D1
:1012400030E040E0369A3699FECF84B195B1280F50
:10125000391F4F5F4517B0F3C9010E94FF0FEE52CF
:10126000FF4F608371832196C430D10571F6809160
:101270008600853009F4A1C2863008F06DC288234B
:1012800009F06FC280917D0084FDD9C298E0E0E052
:10129000F0E0809186008F5F8093860080918600C9
:1012A000843110F010928600992381F0983008F074
:1012B00063C2EE0FFF1FDF01A652BF4F8FEF8C936B
:1012C00011968C93E953FF4F808381838091B00006
:1012D00080937D0090917D0080918200981799F114
:1012E00080917D0082958F7080FD05C080917D008A
:1012F00080FD6BC2D09880917D0082958695877025
:1013000080FD05C080917D0081FD61C2D1988091F2
:101310007D00829586958695837080FD05C08091BD
:101320007D0082FD48C2D29880917D0090E0880FB8
:10133000892F881F990B9195882329F480917D002E
:1013400083FF47C2D39A80917D00809382003091C1
:10135000B10080918100381741F030FDF3C188E180
:101360000FB6F89481BD11BC0FBE309381008091FF
:10137000B2009091B3008093C5009093C60099236A
:1013800009F4C0C186B1929596959770887F982B85
:1013900096B9E091AD007091AE006091AF00E0931E
:1013A000CF007093D0006093D100809183002E2FE6
:1013B00030E08E27807E09F4A9C1A90141705070E8
:1013C000E0FF1BC08EB59E2F929596959770887FF3
:1013D000982B9EBDD62ECC24C601870F911D97BD9C
:1013E00086BD80918400781709F405C2B62EAA2420
:1013F000C501870F911D97BD86BD8091830080FF39
:101400000EC0452B61F48EB5887F83608EBD37BCDE
:1014100026BC2AEF30E03BBD2ABD39BD28BDE09394
:10142000830070938400609385008091A60025B3AB
:10143000382F3F70207F322B35BB90E032B3880FBE
:10144000991F282F2074880F991F880F991F807863
:10145000282B3F73232B22BB9091A70085B3929535
:10146000907F8F70982B95BB2091A80080917D0074
:1014700080FFFFC080917D0084FDFBC0922F9170A2
:1014800080917D0081FF06C080917D0085FD02C0B6
:1014900021FD926080917D0082FF06C080917D00D9
:1014A00086FD02C022FD946080917D0083FF06C00E
:1014B00080917D0087FD02C023FD98608BB3807F03
:1014C000982B9BBB2091A9009091AA003091AB0072
:1014D0004091AC008091CF0080FD05C18091CF008C
:1014E00081FF43C1892F90E0820F911D86589F4F45
:1014F0009BBD8ABD8091CF0082FFAEC1842F90E05A
:10150000830F911D86589F4F99BD88BD80917B00A8
:101510008093870080917C00809390008091D2001E
:10152000809388008091D300809389008091D400BB
:1015300080938A008091D50080938B008091D600A3
:1015400080938C008091D70080938D008091D8008B
:1015500080938E008091D90080938F008091DA0073
:10156000809399008091DB0080939A008091C7005E
:10157000809391008091C800809392008091DC005C
:1015800080939B008091DD0080939C008091C90036
:10159000809393008091CA00809394008091DE0034
:1015A00080939D008091DF0080939E008091CB000E
:1015B000809395008091CC00809396008091E0000C
:1015C00080939F008091E1008093A0008091CD00E6
:1015D000809397008091CE00809398005092A10054
:1015E0004092A20080917E008093A3004FEF5FEFB6
:1015F00020E030E0F901E957FF4F80814827842F30
:1016000082958427082E869586958025082E8695B6
:1016100080258770042E452F869507948795502D39
:10162000482706948795502548272F5F3F4F2D3137
:10163000310501F74093A4005093A500A89510929E
:101640006A00789451CD813009F449C0823009F4A0
:101650006BC052E362E370E0EACD8091B10084FF99
:101660005DC000937A0080917E00816080937E004F
:10167000B9CF90E005CFF89420916C008091C5001F
:10168000E22FF0E090E0EE0FFF1F0E2E02C09595C6
:1016900087950A94E2F7837009F04AC05AE06AE03D
:1016A00070E087B12C5F2F71807E282B27B920E056
:1016B00030E040E0369A3699FECF84B195B1280FDC
:1016C000391F4F5F4517B0F3C9010E94FF0FEE525B
:1016D000FF4F6083718310926B00789405CD51E0C9
:1016E00061E070E0A4CD992E8824C401820F911D81
:1016F0009BBD8ABD742E6624C301830F911D99BDC5
:1017000088BD04CF86B1876086B943CEA9014170F8
:101710005070E0FF72CE41E050E063CE80917E00D9
:101720008E7F80937E005ECF55E065E070E07FCDD8
:10173000813009F479C0823009F472C052E362E367
:1017400070E0AFCF2FE088E190E00FB6F894A89555
:1017500081BD0FBE21BD09CE8A30E9F18F3009F479
:1017600042C090E0EFEFF0E094CD822F90E0865001
:101770009F4F9BBD8ABDBECEEE0FFF1FDF01A6525D
:10178000BF4F1C9211961C92E953FF4F1082118299
:101790009DCD20917D0030E0812F90E0049602C025
:1017A000359527958A95E2F720FFE2CC812F0E949C
:1017B000BF00982FC9CCD29AB7CD80917D0085FD0E
:1017C00063C098E0E1E0F0E064CDD09A94CDD19A86
:1017D0009ECDD398B8CD80917D0086FD29C098E03C
:1017E000E2E0F0E056CD80917D0087FD62C098E098
:1017F000E3E0F0E04ECD80918500681709F0F6CD6A
:10180000FCCDE12FF0E0EE0FFF1FDF01A652BF4F2E
:101810001C9211961C92E953FF4F10821182A8CCA2
:1018200055E065E070E03DCF51E061E070E039CF18
:1018300082E00E94BF00982FE2E0F0E02ACD80E035
:101840000E94BF00982FE0E0F0E023CD8A3051F1F4
:101850008F3009F190E06DCC832F90E086509F4F40
:1018600099BD88BD53CE28E088E190E00FB6F8948A
:10187000A89581BD0FBE21BDFFCF80917D0085FD64
:101880001FC011E098E055CC81E00E94BF00982F66
:10189000E1E0F0E0FECC80917D0087FD17C013E011
:1018A00098E047CC80917D0086FD1CC012E098E056
:1018B00040CC83E00E94BF00982FE3E0F0E0E9CC49
:1018C00081E00E94BF00982F11E033CC83E00E949A
:1018D000BF00982F13E02DCC80E00E94BF00982F0E
:1018E00010E027CC82E00E94BF00982F12E021CCAC
:1018F000A1E1B0E0EEE7FCE00C9413103C017F871F
:101900006E876A01FC0117821682838181FD03C004
:101910006FEF7FEF6FC39E012F5F3F4F398B288B97
:10192000F3012381EE85FF8523FD859123FF8191BE
:10193000FF87EE87882309F45AC3853251F4EE8578
:10194000FF8523FD859123FF8191FF87EE878532F7
:1019500029F490E0B3010E943811E2CF982F10E0F3
:10196000882499241032B0F49B3269F09C3228F418
:10197000903251F0933271F40BC09D3239F09033B4
:1019800049F4116028C01260146025C0186023C09B
:10199000106121C017FD2AC0892F80538A3078F446
:1019A00016FF06C0FAE09F9E902C1124980E13C0DB
:1019B0003AE0839E802C1124880E10620CC09E3267
:1019C00021F416FD14C3106406C09C3611F410688F
:1019D00002C0983659F4EE85FF8523FD959123FFCB
:1019E0009191FF87EE87992309F0BCCF892F855409
:1019F000833020F4812F8061905E07C0892F855647
:101A0000833008F09FC1812F8F7E86FD02C076E073
:101A1000972E6FE3F62EF822953619F4F0E4FF2A9C
:101A200007C0963619F420E8F22A02C091109A9461
:101A3000F7FE0AC03BE3391518F45CE3B52E02C08B
:101A4000B92CB39427E009C047E0491520F4BB2422
:101A500047E0942EF7CF292DBB24C60104969D871D
:101A60008C87F6016081718182819381AE014F5F25
:101A70005F4F0B2D0E944A106C010981202E3324E8
:101A800000FF04C003FD02C01DE209C0F1FE02C058
:101A90001BE205C0F2FC02C010E001C010E2C1016F
:101AA0008C709070892BB9F1112311F483E001C07F
:101AB00084E0881510F088240AC0881AF3FC07C057
:101AC00080E290E0B3010E9438118A94C9F7112393
:101AD00029F0812F90E0B3010E94381123FE03C04A
:101AE00004E510E00EC008E510E00BC0E114F104BD
:101AF00009F0805290E0B3010E9438110F5F1F4F30
:101B000005C0EF2CFF24F0E1EF22FF24F8018491BF
:101B1000882361F714C1F7FE12C0BC0C24FE04C078
:101B20008A81813309F4BA941B141CF0BB24B3944A
:101B30002DC0F8E0FB1550F538E0B32E27C0F6FCB9
:101B400025C0892D90E08C159D054CF02CEFC21618
:101B50002FEFD20624F030E8F32A01C09A9499209E
:101B600049F0E2E0F0E0EC0FFD1FE90DF11D80818E
:101B70008033A1F3F7FE0AC0B92CB394892D90E00D
:101B8000C816D90614F0992401C09C18F7FC03C0AC
:101B900025E030E009C01C141D041CF021E030E0F9
:101BA00003C096012F5F3F4F112311F02F5F3F4F6E
:101BB000992029F0892D90E00196280F391F882D52
:101BC00090E02817390714F0882401C0821A4F2C9E
:101BD0005524C20189709070892B39F008C080E2C9
:101BE00090E0B3010E9438118A948820C1F7112334
:101BF00029F0812F90E0B3010E94381143FE07C005
:101C000008C080E390E0B3010E9438118A948820D4
:101C1000C1F7F7FE46C08601D7FE02C000E010E023
:101C200076010894E11CF11CE01AF10A41E050E051
:101C30004C0F5D1FE40EF51E26014B185108892D2F
:101C400090E0AA24BB24A81AB90A5FEF0F3F15073A
:101C500029F48EE290E0B3010E943811C016D1063B
:101C600034F0401651061CF4F701808101C080E376
:101C7000015010400894E11CF11C0A151B052CF0C2
:101C800090E0B3010E943811E0CF0C151D0539F426
:101C90009A81963318F4953311F424FE81E390E091
:101CA0004BC08A81813309F00F7E90E0B3010E941E
:101CB00038119920A1F08EE290E0B3010E94381112
:101CC00012E0E1E0F0E0EC0FFD1FE10FF11D1F5FFE
:101CD000808190E0B3010E9438119A9491F744FCFE
:101CE00003C085E690E002C085E490E0B3010E9465
:101CF0003811D7FC05C0C114D10441F404FF06C05B
:101D0000D094C194D108D3948DE201C08BE290E0CD
:101D1000B3010E94381180E305C08F5F26EF3FEFCB
:101D2000C20ED31E3AE0C316D104BCF790E0B30153
:101D30000E943811C601C096B3010E943811CC84AC
:101D4000DD8452C1933631F0933799F0933509F021
:101D500059C023C0F601808189835E010894A11CCB
:101D6000B11C22E030E0C20ED31E21E0E22EF12CA5
:101D700012C0F601A080B18016FD03C06FEF7FEFA7
:101D800002C0692D70E022E030E0C20ED31EC50112
:101D90000E942D117C011F7713C0F601A080B18035
:101DA00016FD03C06FEF7FEF02C0692D70E022E0E7
:101DB00030E0C20ED31EC5010E9422117C011068C2
:101DC00013FF07C01BC080E290E0B3010E943811EE
:101DD0008A94882D90E0E816F906A8F30FC0F50163
:101DE00017FD859117FF81915F0190E0B3010E947B
:101DF000381181108A940894E108F108E114F10483
:101E000071F7F2C0943611F0993689F517FF08C0C2
:101E1000F601208131814281538184E090E00AC043
:101E2000F601808191819C01442737FD4095542F14
:101E300082E090E0C80ED91E9FE6F92EF12257FFEE
:101E400009C050954095309521953F4F4F4F5F4FBA
:101E500090E8F92ACA01B901AE014F5F5F4F2AE04D
:101E600030E00E946411E82EE889EE1A41C09537EF
:101E700021F41F7E2AE030E01CC0197F9F3661F0FC
:101E8000903720F4983509F0B2C00FC0903739F080
:101E9000983709F0ACC004C028E030E00AC01061F7
:101EA00014FD146020E130E004C014FD166020E150
:101EB00032E017FF08C0F601608171818281938151
:101EC00044E050E008C0F60180819181BC0180E0CF
:101ED00090E042E050E0C40ED51EAE014F5F5F4F70
:101EE0000E946411E82E5889E51A8FE7F82EF12236
:101EF000F6FE0BC08EEFF822E91438F4F4FE07C0AA
:101F0000F2FC05C09FEEF92202C01E2D01C0192D62
:101F1000F4FE0DC0FE01EE0DF11D8081803319F439
:101F2000E9EEFE2208C01F5FF2FE05C003C08F2D40
:101F3000867809F01F5F0F2DF3FC14C0F0FE0FC070
:101F4000181510F09E2C0BC09E2C980C911A182D71
:101F500006C080E290E0B3010E9438111F5F18159F
:101F6000C0F304C0181510F4811A01C0882404FFBE
:101F70000FC080E390E0B3010E94381102FF1DC042
:101F800001FD03C088E790E00EC088E590E00BC03B
:101F9000802F867891F001FF02C08BE201C080E2C1
:101FA000F7FC8DE290E0B3010E94381106C080E397
:101FB00090E0B3010E9438119A94E914C0F3EA94B6
:101FC000E1E0F0E0EC0FFD1FEE0DF11D808190E0EF
:101FD000B3010E943811EE2091F706C080E290E034
:101FE000B3010E9438118A948820C1F799CCF3017B
:101FF00066817781CB016196E2E10C942F10AA1BD8
:10200000BB1B51E107C0AA1FBB1FA617B70710F0E3
:10201000A61BB70B881F991F5A95A9F78095909515
:10202000BC01CD0108952F923F924F925F926F9223
:102030007F928F929F92AF92BF92CF92DF92EF9258
:10204000FF920F931F93CF93DF93CDB7DEB7CA1BD9
:10205000DB0B0FB6F894DEBF0FBECDBF09942A8804
:10206000398848885F846E847D848C849B84AA84AC
:10207000B984C884DF80EE80FD800C811B81AA8139
:10208000B981CE0FD11D0FB6F894DEBF0FBECDBF04
:10209000ED010895283008F027E03327DA01990F81
:1020A000311D87FD916000966105710539F432603C
:1020B0002E5F3D9330E32A95E1F708959F3F30F07E
:1020C00080387105610509F03C5F3C5F3D939130BC
:1020D00008F08068911DDF93CF931F930F93FF92B9
:1020E000EF92192F987F9695E92F96959695E90F7F
:1020F000FF27EA54FF4F99273327EE24FF24A70137
:10210000E70105900894079428F4360FE71EF81E9F
:10211000491F511D660F771F881F991F0694A1F74D
:102120000590079428F4E70EF81E491F561FC11D9D
:10213000770F881F991F661F0694A1F705900794D3
:1021400028F4F80E491F561FC71FD11D880F991F6D
:10215000661F771F0694A1F70590079420F4490F96
:10216000561FC71FD81F990F661F771F881F069419
:10217000A9F784911095177041F0D695C79557959A
:102180004795F794E7941A95C1F7ECE5F0E0689469
:102190001590159135916591959105907FE2739514
:1021A000E118F10A430B560BC90BD009C0F7E10C3B
:1021B000F11E431F561FC91FD01D7EF4703311F44A
:1021C0008A95E6CFE894015030F0080F0AF4002712
:1021D000021708F4202F2395022F7A3328F079E391
:1021E0007D932A95E9F710C07D932A9589F6069488
:1021F00097956795379517951794E118F10A430B52
:10220000560BC90BD00998F023957E9173957A33BC
:1022100008F070E37C932013B8F77E9170617D9392
:1022200030F0839571E37D9370E32A95E1F71124F3
:10223000EF90FF900F911F91CF91DF91992787FD2C
:1022400090950895FC010590615070400110D8F7F9
:10225000809590958E0F9F1F0895FC0161507040EE
:1022600001900110D8F7809590958E0F9F1F0895CB
:102270000F931F93CF93DF938C01EB018B8181FF31
:102280001BC082FF0DC02E813F818C819D8128174C
:10229000390764F4E881F9810193F983E88306C082
:1022A000E885F985802F0995892B31F48E819F81EE
:1022B00001969F838E8302C00FEF1FEFC801DF914D
:1022C000CF911F910F910895FA01AA27283051F15B
:1022D000203181F1E8946F936E7F6E5F7F4F8F4F57
:1022E0009F4FAF4FB1E03ED0B4E03CD0670F781FB6
:1022F000891F9A1FA11D680F791F8A1F911DA11D9B
:102300006A0F711D811D911DA11D20D009F46894D3
:102310003F912AE0269F11243019305D3193DEF67B
:10232000CF010895462F4770405D4193B3E00FD031
:10233000C9F7F6CF462F4F70405D4A3318F0495D1C
:1023400031FD4052419302D0A9F7EACFB4E0A695FF
:102350009795879577956795BA95C9F70097610521
:10236000710508959B01AC010A2E06945795479577
:1023700037952795BA95C9F7620F731F841F951F6C
:08238000A01D0895F894FFCFA1
:00000001FF
